S0100000372E73775F6C65642E7372656331
S11300000C942A000C943C000C943C000C943C008E
S11300100C943C000C943C000C943C000C943C006C
S11300200C943C000C943C000C943C000C943C005C
S11300300C943C000C943C000C943C000C943C004C
S11300400C943C000C943C000C943C000C943C003C
S11300500C943C0011241FBECFE5D4E0DEBFCDBF1D
S113006020E0A0E6B0E001C01D92A236B207E1F79D
S11300700E943E000C9463000C940000D0988AB354
S113008082688ABBD99AC89B0BC08091600090910A
S1130090610001969093610080936000C899FECF3F
S11300A08091600090916100019709F4DF9A80913A
S11300B0600090916100029731F7DF98109261001F
S10D00C010926000E0CFF894FFCF27
S9030000FC
