S01E000031322E4C43445F346269745F6D6F64655F62617369632E737265636B
S11300000C942A000C943F000C943F000C943F0085
S11300100C943F000C943F000C943F000C943F0060
S11300200C943F000C943F000C943F000C943F0050
S11300300C943F000C943F000C943F000C943F0040
S11300400C943F000C943F000C943F000C943F0030
S11300500C943F0011241FBECFE5D4E0DEBFCDBF1A
S113006010E0A0E6B0E0E6E5F1E002C005900D92F4
S1130070A238B107D9F70E9499000C94A9000C94F6
S11300800000982F907F95BBA898A998AA9AEFE0B2
S1130090F7E23197F1F700C00000AA98F0E18F9FD2
S11300A0C001112485BBA898A998AA9A8FE097E269
S11300B00197F1F700C00000AA980895982F907F47
S11300C095BBA89AA998AA9AEFE0F7E23197F1F7BD
S11300D000C00000AA98F0E18F9FC001112485BBE5
S11300E0A89AA998AA9A8FE097E20197F1F700C01D
S11300F00000AA980895CF93DF93EC0188818823A8
S113010031F021960E945E0089918111FBCFDF912D
S1130110CF9108958FEF84BB82E00E94410088E272
S11301200E9441008EE00E94410086E00E9441004E
S113013008950E948A0080E690E00E947B0080EC93
S11301400E94410082E790E00E947B0080E090E002
S10901500895F894FFCFAE
S1130156204C4344203420626974206D6F6465200A
S113016621002069206D20326E64206C696E652042
S1050176000083
S9030000FC
