S0130000322E6C65645F62617369632E737265631B
S11300000C942A000C9434000C9434000C943400A6
S11300100C9434000C9434000C9434000C9434008C
S11300200C9434000C9434000C9434000C9434007C
S11300300C9434000C9434000C9434000C9434006C
S11300400C9434000C9434000C9434000C9434005C
S11300500C94340011241FBECFE5D4E0DEBFCDBF25
S11300600E9436000C944F000C9400008FEF8ABB62
S113007088E08BBBD89A2FE38DE093E02150804039
S11300809040E1F700C00000D8982FE38DE093E0A2
S1130090215080409040E1F700C00000EBCFF8947D
S10500A0FFCF8C
S9030000FC
