S01A000031392E53696D706C655F44635F6D6F746F722E7372656372
S11300000C942A000C9434000C9434000C943400A6
S11300100C9434000C9434000C9434000C9434008C
S11300200C9434000C9434000C9434000C9434007C
S11300300C9434000C9434000C9434000C9434006C
S11300400C9434000C9434000C9434000C9434005C
S11300500C94340011241FBECFE5D4E0DEBFCDBF25
S11300600E9436000C9449000C9400008FEF84BB6E
S113007095E08AE095BBEDE3F9E43197F1F700C030
S1130080000085BBE9E6F8E13197F1F700C0000014
S1090090F1CFF894FFCF4C
S9030000FC
