:100000000C942A000C9434000C9434000C943400AA
:100010000C9434000C9434000C9434000C94340090
:100020000C9434000C9434000C9434000C94340080
:100030000C9434000C9434000C9434000C94340070
:100040000C9434000C9434000C9434000C94340060
:100050000C94340011241FBECFE5D4E0DEBFCDBF29
:100060000E9436000C9447000C94000014BA8FEFE5
:100070008ABB9FEF83B3813041F49BBBE7EAF1E693
:100080003197F1F700C00000F5CF1BBAF3CFF89419
:02009000FFCFA0
:00000001FF
