S0140000352E6C65645F737472696B652E7372656387
S11300000C942A000C9447000C9447000C9447006D
S11300100C9447000C9447000C9447000C94470040
S11300200C9447000C9447000C9447000C94470030
S11300300C9447000C9447000C9447000C94470020
S11300400C9447000C9447000C9447000C94470010
S11300500C94470011241FBECFE5D4E0DEBFCDBF12
S113006010E0A0E6B0E0EAE2F1E002C005900D92F3
S1130070A236B107D9F720E0A2E6B0E001C01D9294
S1130080A436B207E1F70E9449000C9493000C9443
S113009000008FEF8ABB20E030E061E070E0E2E630
S11300A0F0E048E050E015C0CB01022E02C0880FFA
S11300B0991F0A94E2F79081892B8BBB87EA91E61A
S11300C00197F1F700C000002F5F3F4F02C020E00E
S11300D030E080916000909161002817390724F383
S11300E09C0121503109309361002093600080917C
S11300F062009091630099230CF40196959587957D
S113010080589F4F9093630080936200232BF9F6ED
S1130110509361004093600010926300109262005B
S10D012020E030E0D6CFF894FFCFC2
S105012A0800C7
S9030000FC
