:100000000C942A000C943F000C943F000C943F0089
:100010000C943F000C943F000C943F000C943F0064
:100020000C943F000C943F000C943F000C943F0054
:100030000C943F000C943F000C943F000C943F0044
:100040000C943F000C943F000C943F000C943F0034
:100050000C943F0011241FBECFE5D4E0DEBFCDBF1E
:1000600010E0A0E6B0E0E6E5F1E002C005900D92F8
:10007000A636B107D9F70E949D000C94A9000C94F4
:100080000000982F907F92BB90989198929AEFE001
:10009000F7E23197F1F700C000009298F0E18F9FEE
:1000A000C001112482BB90989198929A8FE097E2B8
:1000B0000197F1F700C00000929808958FEF84BB7C
:1000C00082E090E00E94410088E290E00E944100BE
:1000D00086E090E00E9441008EE090E00E944100A6
:1000E0000895982F907F92BB909A9198929AEFE002
:1000F000F7E23197F1F700C000009298F0E18F9F8E
:10010000C001112482BB909A9198929A8FE097E255
:100110000197F1F700C0000092980895CF93DF9304
:10012000EC018881882331F021960E947100899129
:100130008111FBCFDF91CF9108950E945E0080E88E
:100140000E94410080E690E00E948E0080E090E0F6
:060150000895F894FFCFB2
:0601560068656C6C6F008F
:00000001FF
