S014000032302E4156525F61735F74782E7372656319
S11300000C942A000C943F000C943F000C943F0085
S11300100C943F000C943F000C943F000C943F0060
S11300200C943F000C943F000C943F000C943F0050
S11300300C943F000C943F000C943F000C943F0040
S11300400C943F000C943F000C943F000C943F0030
S11300500C943F0011241FBECFE5D4E0DEBFCDBF1A
S113006010E0A0E6B0E0E8EDF0E002C005900D92EB
S1130070A83BB107D9F70E945B000C946A000C946A
S1130080000088E08AB986E880BD83E389B90895D1
S11300908CB95D9BFECF0895CF93DF93EC018881EB
S11300A0882331F021960E94480089918111FBCF69
S11300B0DF91CF9108950E94410081E40E9448009D
S11300C082E40E94480080E690E00E944C0080E0B8
S10B00D090E00895F894FFCFBD
S11300D86D6F68697420736861726D6120636574FB
S11300E8706120696E666F74656368207076742029
S11300F86C74642E2E2C663B73642C3B6C666D3BCF
S11301086C6D666C73646D27666C6D7364276C66BE
S11301186D276C73646D66276C64736D27666C6DEC
S10B01287364276D6466000096
S9030000FC
