:100000000C942A000C943F000C943F000C943F0089
:100010000C943F000C943F000C943F000C943F0064
:100020000C943F000C943F000C943F000C943F0054
:100030000C943F000C943F000C943F000C943F0044
:100040000C943F000C943F000C943F000C943F0034
:100050000C943F0011241FBECFE5D4E0DEBFCDBF1E
:1000600010E0A0E6B0E0EEE0F1E002C005900D92F5
:10007000AE37B107D9F70E9475000C9485000C9437
:10008000000088BBD898D998DA9A8FE097E2019758
:10009000F1F700C00000DA98089588BBD89AD99883
:1000A000DA9A8FE097E20197F1F700C00000DA9842
:1000B0000895CF93DF93EC018881882331F0219656
:1000C0000E944D0089918111FBCFDF91CF9108955E
:1000D0008FEF87BB8ABB88E30E9441008EE00E94BD
:1000E000410086E00E94410008950E94680080E679
:1000F00090E00E94590080EC0E9441008EE690E062
:0E0100000E94590080E090E00895F894FFCF2F
:10010E0068656C6C6F20576F726C642021002069DB
:0E011E00206D20326E64206C696E652000003A
:00000001FF
