S015000032322E4D61737465725F6176722E7372656369
S11300000C942A000C943F000C943F000C943F0085
S11300100C943F000C943F000C943F000C943F0060
S11300200C943F000C943F000C943F000C943F0050
S11300300C943F000C943F000C943F000C943F0040
S11300400C943F000C943F000C943F000C943F0030
S11300500C943F0011241FBECFE5D4E0DEBFCDBF1A
S113006011E0A0E6B0E0ECEFF3E002C005900D92E1
S1130070A038B107D9F70E94EB010C94FC010C9451
S11300800000982F907F9BBBD89AD998DA9AEFE01A
S1130090F7E23197F1F700C00000DA98F0E18F9FA2
S11300A0C00111248BBBD89AD998DA9A8FE097E2D1
S11300B00197F1F700C00000DA980895982F907F17
S11300C09BBBD898D998DA9AEFE0F7E23197F1F729
S11300D000C00000DA98F0E18F9FC00111248BBBAF
S11300E0D898D998DA9A8FE097E20197F1F700C08F
S11300F00000DA9808958FEF8ABB82E00E945E00C8
S113010088E20E945E0086E00E945E008CE00E940D
S11301105E0081E00E945E000895CF93DF93EC01BE
S11301208881882331F021960E94410089918111B0
S1130130FBCFDF91CF91089511B88CE080B984E4AE
S113014086BF089584EA86BF06B607FEFDCF81B157
S1130150883019F0803189F408C081E00E945E0083
S113016080E690E00E948D00089581E00E945E0088
S11301708CE690E00E948D00089581E00E945E006C
S113018084E790E00E948D00089583B984EC86BFD3
S113019006B607FEFDCF81B1883309F4C6C078F4F2
S11301A0803209F4B6C020F4883109F00CC119C0BA
S11301B0883209F4D2C0803309F005C1DDC080352E
S11301C009F4F9C038F4803409F4B7C0883409F06C
S11301D0FAC0BBC0883509F4E6C0803609F0F3C024
S11301E0DAC081E00E945E0083E890E00E948D0006
S11301F080EC0E945E0083E990E00E948D0081E41F
S113020083B984E886BF06B607FEFDCF81B180348A
S113021091F170F4803309F44DC030F48032B9F0B8
S1130220883209F06EC037C0883309F06AC01BC039
S1130230803509F45EC020F4883409F062C023C01C
S1130240883509F44EC0803609F05BC042C081E0B5
S11302500E945E0081EA90E00E948D008FEA90E0A7
S11302600E948D00089581E00E945E0087EC90E07A
S11302700E948D00089581E00E945E0089ED90E067
S11302800E948D00089581E00E945E008DEE90E052
S11302900E948D00089581E00E945E0086E091E056
S11302A00E948D0080EC0E945E008FE091E00E942D
S11302B08D00089581E00E945E0086E291E00E9434
S11302C08D0080EC0E945E008EE291E00E948D0021
S11302D0089581E00E945E0088E391E00E948D0011
S11302E0089581E00E945E008AE491E00E948D00FE
S11302F0089581E00E945E0083E591E00E948D00F4
S1130300089581E00E945E0081E691E00E948D00E4
S1130310089581E00E945E0081EA90E00E948D00D1
S11303208FEA90E00E948D00089581E00E945E00B3
S113033087EC90E00E948D00089581E00E945E00A9
S113034089ED90E00E948D00089581E00E945E0096
S11303508DEE90E00E948D00089581E00E945E0081
S113036086E091E00E948D0080EC0E945E008FE0A8
S113037091E00E948D00089581E00E945E0086E273
S113038091E00E948D0080EC0E945E008EE291E07C
S11303900E948D00089581E00E945E0088E391E050
S11303A00E948D00089581E00E945E008AE491E03D
S11303B00E948D00089581E00E945E0083E591E033
S11303C00E948D00089581E00E945E0081E691E024
S11303D00E948D0008950E947B0080EC0E945E00C4
S11303E082E791E00E948D000E949C000E94A2007E
S10F03F08EEF0E94C500FFCFF894FFCFF1
S11303FC53544152542073656E742000525354412B
S113040C525420004552524F5220696E205354616D
S113041C727400534C412B5720737563636573736B
S113042C0D200041434B2072656365697665640D4C
S113043C00534C412B57207375636573730D002067
S113044C627574204E4F542041434B207265636592
S113045C697665640D200041726269747261746915
S113046C6F6E206C6F73740D00534C412B522041F2
S113047C434B2052454345495645440D00534C418A
S113048C2B5220204E4F542041434B205245434580
S113049C495645440D006461746120747820004110
S11304AC434B20686173206265656E2072656365D9
S11304BC697665640D006461746120747800206E43
S11304CC6F742041434B0D0064617461206E742081
S11304DC6279206D6173746572006E6F7420616350
S11304EC6B20006461746120726563656976656470
S11304FC004552524F5220696E20534C412B570DDC
S113050C200073656E64696E672064617461000019
S9030000FC
