:100000000C942A000C943C000C943C000C943C0092
:100010000C943C000C943C000C943C000C943C0070
:100020000C943C000C943C000C943C000C943C0060
:100030000C943C000C943C000C943C000C943C0050
:100040000C943C000C943C000C943C000C943C0040
:100050000C943C0011241FBECFE5D4E0DEBFCDBF21
:1000600020E0A0E6B0E001C01D92A236B207E1F7A1
:100070000E94A8000C94AF000C940000982F907F71
:100080009BBBD898D998DA9A2FEF39EF90E021509E
:1000900030409040E1F700C00000DA9820E1829FF4
:1000A000C00111248BBBD898D998DA9A3FEF89EF19
:1000B00090E0315080409040E1F700C00000DA98B5
:1000C00008958FEF8ABB82E090E00E943E0088E2B4
:1000D00090E00E943E0086E090E00E943E008CE0AE
:1000E00090E00E943E000895982F907F9BBBD89A85
:1000F000D998DA9A2FEF39EF90E0215030409040B4
:10010000E1F700C00000DA9820E1829FC0011124CD
:100110008BBBD89AD998DA9A3FEF89EF90E03150AB
:1001200080409040E1F700C00000DA98089580E137
:100130008AB986E880BD83E389B908955F9BFECFC5
:100140008CB180936000109261000E947400089549
:100150000E9497000E9461000E949E00FDCFF894CB
:02016000FFCFCF
:00000001FF
