:100000000C942A000C943F000C943F000C943F0089
:100010000C943F000C943F000C943F000C943F0064
:100020000C943F000C943F000C943F000C943F0054
:100030000C943F000C943F000C943F000C943F0044
:100040000C943F000C943F000C943F000C943F0034
:100050000C943F0011241FBECFE5D4E0DEBFCDBF1E
:1000600010E0A0E6B0E0EEE8F2E002C005900D92EC
:10007000A039B107D9F70E942C010C9445010C94CA
:100080000000982F907F9BBBD898D998DA9AEFE020
:10009000F7E23197F1F700C00000DA98F0E18F9FA6
:1000A000C00111248BBBD898D998DA9A8FE097E2D7
:1000B0000197F1F700C00000DA980895982F907F1B
:1000C0009BBBD89AD998DA9AEFE0F7E23197F1F72B
:1000D00000C00000DA98F0E18F9FC00111248BBBB3
:1000E000D89AD998DA9A8FE097E20197F1F700C091
:1000F0000000DA980895CF93DF93EC01888188237C
:1001000031F021960E945E0089918111FBCFDF9131
:10011000CF9108958FEF8ABB82E00E94410088E270
:100120000E9441008EE00E94410086E00E94410052
:10013000089580EF81BB8FE082BB949882B3806E7C
:1001400082BB80990AC080E690E00E947B0087EA2B
:1001500091E60197F1F700C00000819904C082E6A2
:1001600090E00E947B00829904C084E690E00E94A7
:100170007B00839904C086E690E00E947B009598FE
:1001800082B3806D82BB80990AC089E690E00E94AC
:100190007B0087EA91E60197F1F700C000008199A2
:1001A00004C08BE690E00E947B00829904C08DE63B
:1001B00090E00E947B00839904C08FE690E00E944B
:1001C0007B00969882B3806B82BB87EA91E60197A9
:1001D000F1F700C0000080990AC081E790E00E941A
:1001E0007B0087EA91E60197F1F700C00000819952
:1001F00004C083E790E00E947B00829904C085E7F9
:1002000090E00E947B00839904C087E790E00E9401
:100210007B00979882B3806782BB80990AC089E788
:1002200090E00E947B0087EA91E60197F1F700C019
:100230000000819904C08BE790E00E947B008299C6
:1002400004C08DE790E00E947B00839904C08FE793
:1002500090E00E947B0008950E948A0081E890E06F
:100260000E947B0080EC0E9441008DE890E00E949B
:100270007B0082EC0E94410087EA91E60197F1F74A
:0E02800000C000000E949900F4CFF894FFCF58
:10028E003700340031004F4E003800350032003058
:10029E00003900360033003D002F002A002D002BC0
:1002AE0000456E746572206B65793A20003E000041
:00000001FF
