S0170000332E4C65645F616C7465726E6174652E7372656378
S11300000C942A000C943F000C943F000C943F0085
S11300100C943F000C943F000C943F000C943F0060
S11300200C943F000C943F000C943F000C943F0050
S11300300C943F000C943F000C943F000C943F0040
S11300400C943F000C943F000C943F000C943F0030
S11300500C943F0011241FBECFE5D4E0DEBFCDBF1A
S113006011E0A0E6B0E0E0E2F3E002C005900D92FA
S1130070A632B107D9F70E943F010C948E010C946B
S11300800000982F907F95BBA898A998AA9A2FEF63
S113009039EF90E0215030409040E1F700C000007B
S11300A0AA9820E1829FC001112485BBA898A99831
S11300B0AA9A3FEF89EF90E0315080409040E1F7F9
S11300C000C00000AA9808958FEF84BB82E090E0FE
S11300D00E94410088E290E00E94410086E090E0A6
S11300E00E9441008CE090E00E9441000895982F06
S11300F0907F95BBA89AA998AA9A2FEF39EF90E020
S1130100215030409040E1F700C00000AA9820E15F
S1130110829FC001112485BBA89AA998AA9A3FEF8F
S113012089EF90E0315080409040E1F700C000003A
S1130130AA980895CF93DF93EC018881882331F046
S113014021960E94770089918111FBCFDF91CF9195
S1130150089588E18AB986E880BD83E389B9089562
S11301608CB95D9BFECF0895CF93DF93EC0188811A
S1130170882331F021960E94B00089918111FBCF30
S1130180DF91CF91089580E690E00E94B4002FEFB4
S113019089E698E1215080409040E1F700C00000DA
S11301A08DE00E94B00081E00E94410083E690E06F
S11301B00E949A0082E790E00E94B4002FEF89E643
S11301C098E1215080409040E1F700C000008DE0AC
S11301D00E94B00087E790E00E94B4002FEF89E608
S11301E098E1215080409040E1F700C000008DE08C
S11301F00E94B00081E00E9441008AE990E00E94E0
S11302009A0081E890E00E94B4008AE890E00E949D
S1130210B4008DE00E94B00080EC0E94410087E9A8
S113022090E00E949A002FEF84E39CE021508040EC
S11302309040E1F700C0000084EA90E00E94B4001E
S113024081EC90E00E94B40086EE90E00E94B4003D
S11302508DE00E94B0008AE10E94B0002FEF80E799
S113026092E0215080409040E1F700C0000081E01E
S11302700E9441008AEE90E00E949A0008951ABA02
S11302800E9464000E94A90081E00E94410080E86D
S11302900E94410085EF90E00E949A0080EC0E9449
S11302A0410083E091E00E949A002FEF80E792E002
S11302B0215080409040E1F700C00000C89B13C06B
S11302C081E00E94410083E191E00E949A0081E074
S11302D00E9441008CE191E00E949A000E94C300B8
S11302E0C899FECFEBCF81E00E94410080E80E94D4
S11302F0410085EF90E00E949A0080EC0E9441004A
S113030083E091E00E949A002FEF80E792E0215071
S113031080409040E1F700C00000D0CFF894FFCFB8
S113032041540053656E64696E67205265706F7244
S11303307400415445300041542B434D47463D31F0
S11303400041542B434D47533D002238393438394A
S113035034393631312200424520414C4552542033
S113036021212100424520414C4552542021200A9C
S11303702044414E47455220494E20524F4F4D2074
S1130380002073656E642062793A200A2053485530
S11303904248414D20484F4D45204155544F4D4111
S11303A054494F4E2000202020004D736720536590
S11303B06E742021002020474153204C45414B417D
S11303C04745004445544543544F522053595354D0
S11303D0454D00474153204C45414B00444554454D
S10903E0435445440000F3
S9030000FC
