S019000031372E54696D65725F4354435F6D6F64652E7372656337
S11300000C942A000C9447000C9447000C9447006D
S11300100C9447000C9447000C9447000C94470040
S11300200C9447000C9447000C9447000C94470030
S11300300C9447000C9447000C9447000C94470020
S11300400C9447000C9447000C9447000C94470010
S11300500C94470011241FBECFE5D4E0DEBFCDBF12
S113006010E0A0E6B0E0E2E8F7E002C005900D92EF
S1130070AE36B107D9F720E0AEE6B0E001C01D927C
S1130080A437B207E1F70E94B1000C94BF030C94AB
S11300900000982F907F9BBBD898D998DA9A2FEFBD
S11300A039EF90E0215030409040E1F700C000006B
S11300B0DA9820E1829FC00111248BBBD898D9988B
S11300C0DA9A3FEF89EF90E0315080409040E1F7B9
S11300D000C00000DA9808958FEF8ABB82E090E0B8
S11300E00E94490088E290E00E94490086E090E086
S11300F00E9449008CE090E00E9449000895982FE6
S1130100907F9BBBD89AD998DA9A2FEF39EF90E079
S1130110215030409040E1F700C00000DA9820E11F
S1130120829FC00111248BBBD89AD998DA9A3FEFE9
S113013089EF90E0315080409040E1F700C000002A
S1130140DA980895CF93DF93EC018881882331F006
S113015021960E947F0089918111FBCFDF91CF917D
S113016008950E946C0080E690E00E94A20080EC5A
S11301700E94490012BE8BE083BF8DE78CBF0AE664
S113018010E0CEE6D0E06894FF24F1F882B71F9225
S11301908F931F930F93DF93CF930E94EA00CE01B6
S11301A00E94A2009FEF29E688E191502040804000
S11301B0E1F700C0000080EC0E9449000F900F900E
S11301C00F900F900F900F9008B601FEFDCFF8BE70
S11301D013BEDCCFAEE0B0E0E0EFF0E00C949603A9
S11301E00D891E8986E08C831A8309838FEF9FE72C
S11301F09E838D83CE014996AC016F89788DCE01A3
S113020001960E940C01EF81F885E00FF11F108226
S11302102E96E4E00C94B203ACE0B0E0E2E1F1E04D
S11302200C9488037C016B018A01FC0117821682FD
S1130230838181FFC6C188248394912C8C0E9D1EDA
S1130240F7019381F60193FD859193FF81916F01ED
S1130250882309F4B2C1853239F493FD859193FF63
S113026081916F01853229F4B70190E00E94FE026A
S1130270E7CF512C312C20E02032A8F48B3261F0EE
S113028028F4803251F0833271F40BC08D3239F08E
S1130290803349F4216028C02260246025C028608E
S11302A023C0206121C027FD27C0382F30533A30A6
S11302B078F426FF06C0FAE05F9E300D1124532E19
S11302C013C08AE0389E300D1124332E20620CC0F6
S11302D08E3221F426FD71C1206406C08C3611F4DF
S11302E0206802C0883641F4F60193FD859193FF9E
S11302F081916F018111C0CF982F9554933018F0DC
S11303009052933028F40C5F1F4FFFE3F9830DC024
S1130310833631F0833771F0833509F05EC023C032
S1130320F801808189830E5F1F4F44244394512C2C
S1130330540115C03801F2E06F0E711CF801A08061
S1130340B18026FF03C0652D70E002C06FEF7FEF20
S1130350C5012C870E94F3022C0183012C856FE7D1
S1130360262E222218C03801F2E06F0E711CF8010B
S1130370A080B18026FF03C0652D70E002C06FEF3E
S11303807FEFC5012C870E94E8022C012C8550E8E0
S1130390252E222A830123FC1CC006C0B70180E25B
S11303A090E00E94FE023A94832D90E0481659068C
S11303B0A8F30FC0F50127FC859127FE81915F0109
S11303C0B70190E00E94FE0231103A94F1E04F1A16
S11303D051084114510471F7EDC0843611F0893687
S11303E041F5F80127FF07C0608171818281938103
S11303F00C5F1F4F08C060817181882777FD80954D
S1130400982F0E5F1F4F4FE6B42EB22297FF09C0FC
S113041090958095709561957F4F8F4F9F4FF0E831
S1130420BF2A2AE030E0A4010E942A03A82EA818BB
S113043043C0853731F43FEEB32EB2222AE030E0D8
S113044024C099EFB92EB2228F36B9F020F4883542
S113045009F0B3C00DC0803721F0883709F0ADC072
S113046002C020E1B22AB4FE0BC084E0B82A08C05E
S113047024FF09C0E6E0BE2A06C028E030E005C03B
S113048020E130E002C020E132E0F801B7FE07C00D
S113049060817181828193810C5F1F4F06C06081EE
S11304A0718180E090E00E5F1F4FA4010E942A0337
S11304B0A82EA818FFE7BF22B6FE0BC02B2D2E7F57
S11304C0A51450F4B4FE0AC0B2FC08C02B2D2E7E35
S11304D005C07A2C2B2D03C07A2C01C0752C24FF67
S11304E00DC0FE01EA0DF11D8081803311F4297ED7
S11304F009C022FF06C07394739404C0822F8678C7
S113050009F0739423FD14C020FF0FC05A2C7314F8
S113051060F4530C5718732C08C0B70180E290E0C4
S11305202C870E94FE0273942C857314B0F304C0CC
S1130530731410F4371801C0312C24FF12C0B70112
S113054080E390E02C870E94FE022C8522FF1EC0CF
S113055021FF03C088E590E002C088E790E0B7017E
S11305600CC0822F867891F021FD02C080E201C088
S11305708BE227FD8DE2B70190E00E94FE0206C0E7
S1130580B70180E390E00E94FE025A94A514C0F3E0
S1130590AA94F401EA0DF11DB701808190E00E9454
S11305A0FE02A110F5CF06C0B70180E290E00E94E0
S11305B0FE023A943110F8CF43CEF70126813781F9
S11305C002C02FEF3FEFC9012C96E2E10C94A40383
S11305D0FC010590615070400110D8F7809590950A
S11305E08E0F9F1F0895FC0161507040019001100F
S11305F0D8F7809590958E0F9F1F08950F931F93A2
S1130600CF93DF938C01EB018B8181FD03C00FEF4E
S11306101FEF1AC082FF0DC02E813F818C819D8106
S11306202817390764F4E881F9810193F983E88391
S113063006C0E885F985802F0995892B41F78E81BD
S11306409F8101969F838E83C801DF91CF911F9173
S11306500F910895FA01AA27283051F1203181F130
S1130660E8946F936E7F6E5F7F4F8F4F9F4FAF4FB6
S1130670B1E03ED0B4E03CD0670F781F891F9A1FC9
S1130680A11D680F791F8A1F911DA11D6A0F711D7D
S1130690811D911DA11D20D009F468943F912AE089
S11306A0269F11243019305D3193DEF6CF01089571
S11306B0462F4770405D4193B3E00FD0C9F7F6CFA2
S11306C0462F4F70405D4A3318F0495D31FD40526A
S11306D0419302D0A9F7EACFB4E0A6959795879500
S11306E077956795BA95C9F70097610571050895DF
S11306F09B01AC010A2E069457954795379527958B
S1130700BA95C9F7620F731F841F951FA01D089522
S11307102F923F924F925F926F927F928F929F920D
S1130720AF92BF92CF92DF92EF92FF920F931F93FB
S1130730CF93DF93CDB7DEB7CA1BDB0B0FB6F894AC
S1130740DEBF0FBECDBF09942A88398848885F84EC
S11307506E847D848C849B84AA84B984C884DF805D
S1130760EE80FD800C811B81AA81B981CE0FD11D41
S11307700FB6F894DEBF0FBECDBFED010895F89417
S1050780FFCFA5
S111078254434E5430203D3E200025640000B8
S9030000FC
