:100000000C942A000C943F000C943F000C943F0089
:100010000C943F000C943F000C943F000C943F0064
:100020000C943F000C943F000C943F000C943F0054
:100030000C943F000C943F000C943F000C943F0044
:100040000C943F000C943F000C943F000C943F0034
:100050000C943F0011241FBECFE5D4E0DEBFCDBF1E
:1000600010E0A0E6B0E0EEE1F1E002C005900D92F4
:10007000A038B107D9F70E9457000C948D000C945A
:100080000000D898D998DA9A8FE097E20197F1F7B3
:1000900000C00000DA980895D89AD998DA9A8FE0CB
:1000A00097E20197F1F700C00000DA9808950F93E6
:1000B0001F93CF93DF938FEF87BB8ABBC0E6D0E05F
:1000C00008E610E08881229688BB0E944100C01794
:1000D000D107C1F7C2E7D0E000E810E0888122969E
:1000E00088BB0E944C00C017D107C1F780EC88BBC9
:1000F0000E944100C8E6D0E002E710E08881229625
:1001000088BB0E944C00C017D107C1F780E090E087
:0E011000DF91CF911F910F910895F894FFCFCA
:10011E00380006000E000100480045004C004C005F
:10012E004F00570045004C0043004F004D00450066
:00000001FF
